:100000000C943E000C945B000C945B000C945B0021
:100010000C945B000C945B000C945B000C945B00F4
:100020000C945B000C945B000C945B000C945B00E4
:100030000C945B000C945B000C945B000C945B00D4
:100040000C945B000C945B000C9497050C945B0083
:100050000C945B000C945B000C945B000C945B00B4
:100060000C945B000C945B000C945B000C945B00A4
:100070000C945B000C945B000C945B0011241FBE7D
:10008000CFEFD0E1DEBFCDBF11E0A0E0B1E0E6EF01
:10009000F1E102C005900D92AE31B107D9F713E03E
:1000A000AEE1B1E001C01D92AA3FB107E1F70E94A5
:1000B000B8050C94F9080C9400002C98962F9F71A9
:1000C000982B9EBD0DB407FEFDCF1EBC0DB407FEE0
:1000D000FDCF67FF04C01EBC0DB407FEFDCF2C9AF8
:1000E0008EB508952C986F71682B6EBD0DB407FE08
:1000F000FDCF4EBD0DB407FEFDCF2C9A0895AC0187
:10010000FB012C988AE38EBD0DB407FEFDCF9A014A
:10011000DF0108C01EBC0DB407FEFDCF21503040EA
:100120008EB58D9321153105A9F7E40FF51F1082C7
:100130002C9A08959C01FB012C988AE78EBD0DB482
:1001400007FEFDCF08C080818EBD0DB407FEFDCF38
:1001500021503040319621153105A9F72C9A089588
:100160001F93CF93DF93182FC82FD0E0C076D070A5
:1001700080911E0190E0C817D90791F080EA6FE1E5
:1001800043E00E94720085E0D595C7958A95E1F716
:1001900080E86FE14C2F0E947200107610931E01D0
:1001A000DF91CF911F9108951F93182F0E94B000E7
:1001B00080E0612F0E945D001F9108950F931F93AF
:1001C000182F062F0E94B00080E4612F402F0E945C
:1001D00072001F910F910895682F84ED0E94DE0038
:1001E00082ED61E00E94DE0080E58A95F1F78AEEFB
:1001F0000E94D40080FDFBCF82ED60E00E94DE0013
:1002000089ED0E94D40090E008950F931F93982FDA
:10021000162F072F84ED692F0E94DE0086ED612FD7
:100220000E94DE0087ED602F0E94DE0010E503C013
:10023000812F8A95F1F78AEE0E94D40080FDF8CFD5
:100240001F910F910895682F677085E70E94DE0067
:1002500008950F931F938C01249A2C9A84B1806A7D
:1002600084B9269A2D9A2F9A80E58CBD8DB5816030
:100270008DBD8FEF60E04FEF0E9472008DEC8A958C
:10028000F1F71092200110921F0188E060E00E94B7
:10029000DE0089E060E00E94DE008CE060E00E9409
:1002A000DE008DE060E00E94DE008AE06EEF0E94DA
:1002B000DE008BE069E10E94DE0084E06FEF0E94C7
:1002C000DE0085E069E10E94DE0086E06FEF0E94BB
:1002D000DE0087E06FE10E94DE0088E360EB0E94B1
:1002E000DE0088E26FE30E94DE0089E260E30E94A4
:1002F000DE0080E369EF0E94DE0081E367EF0E9489
:10030000DE0080EC6DE00E94DE0081EC60E00E9487
:10031000DE0080E862EC42E30E94720086EC62E15B
:100320000E94DE0087EC6CE00E94DE0084EC62E15B
:100330000E94DE008AEC6CED0E94DE008BEC65E032
:100340000E94DE0084EEF80160810E94DE0085EEEE
:10035000F80161810E94DE0082EEF80162810E9454
:10036000DE0083EEF80163810E94DE0080EEF8017A
:1003700064810E94DE0081EEF80165810E94DE004A
:1003800080E160E071E00E9405018FE10E94B00011
:1003900080E86BE140EC0E94720080E86FE144E08D
:1003A0000E9472001F910F91089582E70E94D4006D
:1003B000089581E10E94EC0020E0892B09F021E002
:1003C000822F08950F931F93CF93DF93EC018B013E
:1003D0000FC08CE10E94D40081FF0AC080E86FE169
:1003E00040E80E94720080EA6FE140E80E947200DB
:1003F00080E06FE10E945D0083FDEBCF82E06FEF54
:100400000E94DE0083E069E10E94DE00CE0181509F
:10041000682F86E00E94DE009E012150364E87E064
:10042000632F0E94DE008AE760E040E00E947200D5
:10043000CE01B8010E949A0080E86FE148E00E9476
:100440007200DF91CF911F910F91089589E30E946F
:10045000D400811181E008958F929F92AF92BF9254
:10046000CF92DF92EF92FF920F931F93CF93DF9380
:100470005C014B0189E30E94D400882319F4C0E099
:10048000D0E07AC000911F011091200180E0602F20
:100490000E94DE00012F110F110B81E0602F0E94DE
:1004A000DE008AE360E00E945D00182F8AE360E0CE
:1004B0000E945D00382F20E0E12EFF24E22AF32A7B
:1004C000F0922001E0921F018AE360E00E945D004B
:1004D000C82E8AE360E00E945D00D82E8AE360E0C7
:1004E0000E945D00082F10E08AE360E00E945D003A
:1004F000382F20E0202B312B27FD03C0C0E0D0E0B7
:1005000011C0CC2DD0E09D2D80E0C82BD92BC5018A
:10051000019724978C179D0708F4EC01CE01B401D4
:100520000E947F008CE06E2D0E94DE006F2D7727E9
:1005300067FD7A958DE00E94DE0087010150104032
:1005400089E10F3F180738F08CE06EEF0E94DE0063
:100550008DE069E10AC06E2D61508CE00E94DE00E2
:10056000612F772767FD7A958DE00E94DE0080E895
:100570006EE140E40E947200CE01DF91CF911F91A5
:100580000F91FF90EF90DF90CF90BF90AF909F9032
:100590008F900895EF92FF920F931F93CF93DF9365
:1005A0007C01413061F4685070409B0140E050E0B4
:1005B000685F7F4F2F5E3F4F4F4F5F4F12C04230FB
:1005C00029F020E030E040E050E00BC0685070407F
:1005D0009B0140E050E0685F7F4F2A5F3F4F4F4FE5
:1005E0005F4FE7018B010FC0F881E0E0898190E067
:1005F0008E2B9F2BA0E0B0E0280F391F4A1F5B1FF6
:100600002296025010400230110570F7FB01EE7F78
:10061000EE0DFF1D60FF0DC0908180E0AA2797FDC1
:10062000A095BA2F02C040705070280F391F4A1F82
:100630005B1FCA01AA27BB270097A105B10599F73F
:1006400020953095C901DF91CF911F910F91FF90B7
:10065000EF900895AC0120E030E0F901E95DFE4F34
:10066000DB01A20FB31F8C9180832F5F3F4F24309B
:10067000310599F720E030E0F901EF5DFE4FDA0136
:10068000A20FB31F8C9180832F5F3F4F263031051F
:1006900099F70895FC016932B0F08485883099F4A7
:1006A0008585863081F4DF019696E7E2F1E09C9142
:1006B0008081981741F41196319681E0EB32F8076A
:1006C000B1F781E0089580E00895FC016A32B8F046
:1006D00084858830A1F48585882389F4DF01E7E2E9
:1006E000F1E05E969C915E978081981741F4119697
:1006F000319681E0EB32F807A1F781E0089580E0C0
:100700000895FC01A1E2B1E0868180838D9186830A
:10071000319681E0A732B807B9F70895CF93DF93F8
:10072000EC01FC01A7E2B1E0828D868F8D91828F72
:10073000319681E0AB32B807B9F7188E198E80E494
:100740008C8B1D8A8E8BCE010E9664E170E040E0AA
:100750000E94CA02988F898FDF91CF910895DF920E
:10076000EF92FF920F931F93CF93DF93EC017B01E6
:10077000142FD22E032F0E9481031D3D08F01CED83
:10078000188A145E198BCE010E948E038AA18CA355
:100790008BA18DA30AA3DBA21EA214511FA3185084
:1007A00018A619A6DE019A9620E030E007C0F701EE
:1007B000E20FF31F80818D932F5F3F4F2117B8F316
:1007C000012F10E0005F1F4FCE014A96B80141E0B3
:1007D0000E94CA0298A789A7C8014A96BE010E9432
:1007E000E201DF91CF911F910F91FF90EF90DF9089
:1007F00008951F93CF93DF93EC01162F0E9481037E
:10080000CE010E948E031AA28CA1883F18F08DA100
:100810008F5F8DA38CA1885F8CA3812F90E0BE0198
:100820000E94E201DF91CF911F910895CF93DF9352
:10083000EC010E9481031C8A82E08D8BFE01A1E203
:10084000B1E0868980A38D91868B319681E0A732B5
:10085000B807B9F7FE017C96A7E2B1E080818287F4
:100860008D91819381E0AB32B807C1F78AE290E0C5
:10087000BE010E94E201DF91CF91089520E03FE0A8
:1008800004C0F9013197F1F701970097D1F7089566
:100890002FE088E190E00FB6F894A895809360006F
:1008A0000FBE209360000895A8950895FC018CE385
:1008B00080939F0384E48093A00381E08093A1034D
:1008C0008181813021F48091A203816003C08091F5
:1008D000A2038E7F8093A2038281813021F48091D4
:1008E000A203826003C08091A2038D7F8093A20344
:1008F0008381813021F48091A203846003C08091C0
:10090000A2038B7F8093A2038481813021F48091A4
:10091000A203886003C08091A203877F8093A20313
:100920008581813021F48091A203806103C0809190
:10093000A2038F7E8093A2038681813021F480916F
:10094000A203806203C08091A2038F7D8093A203E3
:100950008781813021F48091A203806403C080915B
:10096000A2038F7B8093A2038085813021F4809144
:10097000A203806803C08091A2038F778093A203B3
:100980008185813021F48091A303816003C080912F
:10099000A3038E7F8093A3038285813021F480910D
:1009A000A303826003C08091A3038D7F8093A30380
:1009B0008385813021F48091A303846003C08091FA
:1009C000A3038B7F8093A3038485813021F48091DE
:1009D000A303886003C08091A303877F8093A30350
:1009E0008585813021F48091A303806103C08091CB
:1009F000A3038F7E8093A3038685813021F48091A9
:100A0000A303806203C08091A3038F7D8093A3031F
:100A10008785813021F48091A303806403C0809195
:100A2000A3038F7B8093A3038089813021F480917D
:100A3000A303806803C08091A3038F778093A303EF
:100A40008189813021F48091A403816003C0809169
:100A5000A4038E7F8093A4038289813021F4809146
:100A6000A403826003C08091A4038D7F8093A403BC
:100A70008389813021F48091A403846003C0809134
:100A8000A4038B7F8093A4038489813021F4809117
:100A9000A403886003C08091A403877F8093A4038C
:100AA0008589813021F48091A403806103C0809105
:100AB000A4038F7E8093A4038689813021F48091E2
:100AC000A403806203C08091A4038F7D8093A4035C
:100AD0008789813021F48091A403806403C08091D0
:100AE000A4038F7B8093A403808D813021F48091B7
:100AF000A403806803C08091A4038F778093A4032C
:100B000080E090E0089584B1806A84B926982D9899
:100B10002F9885E085BDEEE6F0E0808181608083DE
:100B200080E58CBD8DB581608DBD789408951F9250
:100B30000F920FB60F9211248F939F9380913001E3
:100B40009091310101969093310180933001853667
:100B500091053CF0109231011092300181E08093B8
:100B60008D039F918F910F900FBE0F901F9018953E
:100B70007F928F929F92AF92BF92CF92DF92EF922D
:100B8000FF920F931F93DF93CF93CDB7DEB7E2971A
:100B90000FB6F894DEBF0FBECDBF519A529A5A9845
:100BA00080E090E0AE01465E5F4F9E012F5F3F4FB9
:100BB000FA01E80FF91F1082F901E80FF91F1082FE
:100BC00001968A319105A1F70E94830580E091E0AA
:100BD0000E94290188EC90E020E931E0F901319789
:100BE000F1F70197D9F784E166E774E00E94050107
:100BF00088EC90E020E931E0F9013197F1F70197B5
:100C0000D9F780E091E066E071E00E942A0387B1A5
:100C100087B988B19FEF98B981B181B982B192B992
:100C20008AB18F708AB98BB1806F8BB984B1807FA4
:100C300084B985B18F6085B9539A62E0A62E5AE1D6
:100C4000E52EF12CEC0EFD1E01E048E0942E31E182
:100C5000832E24E0722E90EBB92E80E9C82E81E01D
:100C6000D82E8091EF039091F00301969093F003BA
:100C70008093EF0380549F4139F48BB18A258BB95F
:100C80001092F0031092EF031A814D990AC00B8F56
:100C9000112381F4C7010E94560400938D030A8337
:100CA00009C01B8E113031F4C7010E945604109305
:100CB0008D031A821B814C990AC00C8F112381F479
:100CC000C7010E94560400938D030B8309C01C8E3C
:100CD000113031F4C7010E94560410938D031B821A
:100CE0001C814F990AC00D8F112381F4C7010E9406
:100CF000560400938D030C8309C01D8E113031F40E
:100D0000C7010E94560410938D031C821D814E99C9
:100D10000AC00E8F112381F4C7010E94560400936C
:100D20008D030D8309C01E8E113031F4C7010E945E
:100D3000560410938D031D821E8131990AC00F8FB6
:100D4000112381F4C7010E94560400938D030E8382
:100D500009C01F8E113031F4C7010E945604109350
:100D60008D031E821F8130990AC008A3112381F4CC
:100D7000C7010E94560400938D030F8309C018A277
:100D8000113031F4C7010E94560410938D031F8265
:100D9000188533990AC009A3112381F4C7010E9461
:100DA000560400938D03088709C019A2113031F44D
:100DB000C7010E94560410938D0318861985329935
:100DC0000AC00AA3112381F4C7010E9456040093AC
:100DD0008D03098709C01AA2113031F4C7010E949E
:100DE000560410938D0319861A8535990AC00BA3F2
:100DF000112381F4C7010E94560400938D030A87D2
:100E000009C01BA2113031F4C7010E94560410938F
:100E10008D031A861B8534990AC00CA3112381F413
:100E2000C7010E94560400938D030B8709C01CA2C2
:100E3000113031F4C7010E94560410938D031B86B4
:100E40001C8537990AC00DA3112381F4C7010E94A4
:100E5000560400938D030C8709C01DA2113031F494
:100E6000C7010E94560410938D031C861D85369978
:100E70000AC00EA3112381F4C7010E9456040093F7
:100E80008D030D8709C01EA2113031F4C7010E94E5
:100E9000560410938D031D861E8506990AC00FA364
:100EA000112381F4C7010E94560400938D030E871D
:100EB00009C01FA2113031F4C7010E9456041093DB
:100EC0008D031E861F8507990AC008A7112381F488
:100ED000C7010E94560400938D030F8709C018A60E
:100EE000113031F4C7010E94560410938D031F8600
:100EF000188904990AC009A7112381F4C7010E9427
:100F0000560400938D03088B09C019A6113031F4E3
:100F1000C7010E94560410938D03188A19890599F8
:100F20000AC00AA7112381F4C7010E945604009346
:100F30008D03098B09C01AA6113031F4C7010E9434
:100F4000560410938D03198A1A8902990AC00BA7B7
:100F5000112381F4C7010E94560400938D030A8B6C
:100F600009C01BA6113031F4C7010E94560410932A
:100F70008D031A8A1B8903990AC00CA7112381F4D7
:100F8000C7010E94560400938D030B8B09C01CA659
:100F9000113031F4C7010E94560410938D031B8A4F
:100FA0001C8900990AC00DA7112381F4C7010E9472
:100FB000560400938D030C8B09C01DA6113031F42B
:100FC000C7010E94560410938D031C8A1D89019944
:100FD0000AC00EA7112381F4C7010E945604009392
:100FE0008D030D8B09C01EA6113031F4C7010E947C
:100FF000560410938D031D8A1E8919990AC00FA7E4
:10100000112381F4C7010E94560400938D030E8BB7
:1010100009C01FA6113031F4C7010E945604109375
:101020008D031E8A1F89189B0AC008AB112381F407
:10103000C7010E94560400938D030F8B09C018AAA4
:10104000113031F4C7010E94560410938D031F8A9A
:10105000188D1B990AC009AB112381F4C7010E94A6
:10106000560400938D03088F09C019AA113031F47A
:10107000C7010E94560410938D03188E198D1A997A
:101080000AC00AAB112381F4C7010E9456040093E1
:101090008D03098F09C01AAA113031F4C7010E94CB
:1010A000560410938D03198E80918D03813009F0C1
:1010B00061C090E011C0E92FF0E09F012E5C3E4F2F
:1010C000DF01A050BF4F8C91D9018C93E65FFE4F9A
:1010D000808116968C939F5F963068F390932B01D6
:1010E00090923E0110923F01A0E4B1E0E0E1F1E016
:1010F00089E001900D928150E1F7109242018092B7
:10110000490190E013C0E92FF0E09F012E5C3E4FB3
:10111000DF01AA5FBE4F8C91D9015E968C935E97DA
:10112000E75EFE4F80815A968C939F5F943058F310
:1011300090932B0170925401B0925501B0925601D8
:101140001092580110925A0110925B015B9A8CE246
:1011500091E0F6013197F1F70197D9F75B9882E3B7
:1011600091E06FE973E049E020EB34E00E94AF03C7
:1011700010928D0388E592E062E371E00E942C02F8
:10118000BC019093C4038093C303009709F469CD15
:1011900082E391E00E944A03882339F082E391E0E0
:1011A0006091C3030E9416045CCD82E391E06091DC
:1011B000C3030E946503882309F453CD809149013C
:1011C000813061F480915401883009F04ACD82E386
:1011D00091E06091C3030E94F90343CD813109F08E
:1011E00040CD80915C01813009F03BCD80938D032F
:1011F00038CDF894FFCF444F4D303032C0A8C8D41A
:1012000000304F5D01A1450000820000400020C079
:10121000A8C8DC00198BCE010E94D6088AA18CA335
:101220008BA18DA30AA3DBA21EA214511FA31850E9
:1012300018A619A6DE019A9620E030E007C0F70153
:10124000E20FF31F80818D932F5F3F4F2117B8F37B
:10125000012F10E0005F1F4FCE014A96B80141E018
:101260000E94120898A789A7C8014A96BE010E9449
:101270006107DF91CF911F910F91FF90EF90DF9069
:1012800008951F93CF93DF93EC01162F0E94C90896
:10129000CE010E94D6081AA28CA1883F18F08DA119
:1012A0008F5F8DA38CA1885F8CA3812F90E0BE01FE
:1012B0000E946107DF91CF911F910895CF93DF9333
:1012C000EC010E94C9081C8A82E08D8BFE01A5E515
:1012D000B2E0868980A38D91868B319682E0AB3512
:1012E000B807B9F7FE017C96ABE5B2E08081828752
:1012F0008D91819382E0AF35B807C1F78AE290E023
:10130000BE010E946107DF91CF910895991B79E09A
:1013100004C0991F961708F0961B881F7A95C9F785
:1013200080950895F894FFCFA700A700AD00B20004
:10133000B600BA00BD00C000C300C600CF00D80090
:10134000DD00DF00E100E400E800EC00F100F70060
:10135000444F4D353242C0A8C8CE00138FFAD8C7CB
:10136000450000820000400020C0A8C8DC00FFFF4C
:10BA7000FFFFFF393A3A3B3B3C3C3D3D3E3E3F3FBA
:10BA8000404041414242434344444545464647477E
:10BA9000484849494A4A4B4B4C4C4D4D4E4E4F4FEE
:10BAA000505051515252535354545555565657575E
:10BAB000585859595A5A5B5B5C5C5D5D5E5E5F5FCE
:10BAC000606061616262636364646565666667673E
:10BAD000686869696A6A6B6B6C6C6D6D6E6E6F6FAE
:10BAE000707071717272737374747575767677771E
:10BAF000787879797A7A7B7B7C7C7D7D7E7E7F7F8E
:10BB000080808181828283838484858586868787FD
:10BB1000888889898A8A8B8B8C8C8D8D8E8E8F8F6D
:10BB200090909191929293939494959596969797DD
:10BB3000989899999A9A9B9B9C9C9D9D9E9E9F9F4D
:10BB4000A0A0A1A1A2A2A3A3A4A4A5A5A6A6A7A7BD
:10BB5000A8A8A9A9AAAAABABACACADADAEAEAFAF2D
:10BB6000B0B0B1B1B2B2B3B3B4B4B5B5B6B6B7B79D
:10BB7000B8B8B9B9BABABBBBBCBCBDBDBEBEBFBF0D
:10BB8000C0C0C1C1C2C2C3C3C4C4C5C5C6C6C7C77D
:10BB9000C8C8C9C9CACACBCBCCCCCDCDCECECFCFED
:10BBA000D0D0D1D1D2D2D3D3D4D4D5D5D6D6D7D75D
:10BBB000D8D8D9D9DADADBDBDCDCDDDDDEDEDFDFCD
:10BBC000E0E0E1E1E2E2E3E3E4E4E5E5E6E6E7E73D
:10BBD000E8E8E9E9EAEAEBEBECECEDEDEEEEEFEFAD
:10BBE000F0F0F1F1F2F2F3F3F4F4F5F5F6F6F7F71D
:10BBF000F8F8F9F9FAFAFBFBFCFCFDFDFEFEFFFF8D
:10BC000000000101020203030404050506060707FC
:10BC1000080809090A0A0B0B0C0C0D0D0E0E0F0F6C
:10BC200010101111121213131414151516161717DC
:10BC3000181819191A1A1B1B1C1C1D1D1E1E1F1F4C
:10BC400020202121222223232424252526262727BC
:10BC5000282829292A2A2B2B2C2C2D2D2E20000098
:10BC6000000000FFFFFFFFFFFFFFFFFFFFFFFFFFE1
:10BCD000FFFFFFFFFFFFFFFFFFFFFFFCFFFFFFFF77
:10BD6000FFFFFFCFFFFFFFFFFFFFFFFFFFFFFFFF13
:10BD7000FFFFFFFFFFFFFFFFFFE7FFFFFFFFFFFFEB
:10BDA000FFFFFFFFFFFFFEFFFFFFFFFFFFFFFFFFA4
:10BDE000FFFFFFFFFFFFFFFFFEFFFFFFFFFFFFFF64
:10BE4000FCFFFFFFFFFFFFFFFFFFFFFFFFFFFFFF05
:10BE6000FFFFFFFFFFFFFFFFFFFFFFFFFFCFFFFF12
:10BE8000FFFFFFFF7FFFFFFFFFFFFFFFFFFFFFFF42
:10BE9000FFFFFFFFFFFFFFFFFFFFFFCFFFFFFFFFE2
:10BEE000FFFCFFFFFFFFFFFFFFFFFFFFFFFFFFFF65
:10BF4000FCFFFFFFFFFFFFFFFFFFFFFFFFFFFFFF04
:10BF6000FFFFFFFFFFFFFFFFFFFFFFFFFFFFFFE7F9
:10BF9000FFFFFFFFFFFFFFFFFFFFFFFFFFFFF3FFBD
:10BFC000FFFFFFFFFFFFFFFFFFFFFFFFFFF3FFFF8D
:10C01000FFFFFFFFFFF9FFFFFFFFFFFFFFFFFFFF36
:10C09000FFFF9FFFFFFFFFFFFFFFFFFFFFFFFFFF10
:10C0C000FFFFFFE7FFFFFFFFFFFFFFFFFFFFFFFF98
:10C0F000FFFFFFFFF3FFFFFFFFFFFFFFFFFFFFFF5C
:10C1B000FFFFFFFFFFFFFF9FFFFFFFFFFFFFFFFFEF
:10C1C000FFFFFFFFFFFFFFFFFFFFFFFFFFFFFFE797
:10C1E000FFFFFFFFFFFFFFF9FFFFFFFFFFFFFFFF65
:10C24000FFFFFFFFFFFFFFFFFFFF3FFFFFFFFFFFBE
:10C27000FFFFFFFFFFFFFFFFFFFFFFE7FFFFFFFFE6
:10C33000FFFFFFFFFFFFFFFFFFFFFF9FFFFFFFFF6D
:10C35000FFFFFF9FFFFFFFFFFFFFFFFFFFFFFFFF4D
:0CC36000FFFFFFFFFFFFFFFFFFFFFF9F3D
:00000001FF
