:100000000C9472000C9493000C9493000C94930045
:100010000C9493000C9493000C9493000C94930014
:100020000C9493000C9493000C9493000C94930004
:100030000C9493000C9493000C9493000C949300F4
:100040000C9493000C9493000C9493000C949300E4
:100050000C9412010C9493000C9493000C94930054
:100060000C9493000C9493000C9493000C949300C4
:100070000C9493000C9493000C9493000C949300B4
:100080000C9493000C9493000C9493000C949300A4
:100090000C9493000C9493000C9493000C94930094
:1000A0000C9493000C9493000C9493000C94930084
:1000B0000C9493000C9493000C9493000C94930074
:1000C0000C9493000C9493000C9493000C94930064
:1000D0000C9493000C9493000C9493000C94930054
:1000E0000C94930011241FBECFEFD1E2DEBFCDBF31
:1000F00000E00CBF12E0A0E0B2E0EAEEFBE000E0BE
:100100000BBF02C007900D92AE31B107D9F714E0D2
:10011000AEE1B2E001C01D92AC33B107E1F70E943D
:10012000A2010C94F3050C940000909109019095A4
:10013000909338042FB12095209335043091060117
:10014000309530932E0446B1409540932F0459B119
:10015000509550933A0410922304809137049817D5
:1001600029F09093370481E0809323048091330435
:10017000281729F02093330481E080932304809191
:100180003004381729F03093300481E08093230441
:1001900080913904481729F04093390481E0809315
:1001A000230480913B04581729F050933B0481E0CD
:1001B0008093230408958CE38093240484E4809343
:1001C00025048EE3809326048091380480932704CD
:1001D000809135048093280480913A048093290407
:1001E00080912F0480932A0480912E0480932B0405
:1001F000089581E080936F0085E08093810085EE13
:100200008093840089EF8093850084B1876084B9EE
:1002100023982A98299880E58CBD8DB581608DBD85
:10022000789408951F920F920FB60F9211248F9316
:100230009F93809136048F5F8093360491E0909372
:1002400034048A3060F01092360480910101886095
:100250008093010180910201877F80930201809148
:100260003604813051F4809101018860809301014E
:100270008091020188608093020185EE8093840062
:1002800089EF809385009F918F910F900FBE0F9003
:100290001F901895FF920F931F93CF93DF938C01BC
:1002A000F62E9A01C1E2D2E0A0E0B0E0FD01E050FC
:1002B000FE4F80818883FD01EA5FFD4F80818E8340
:1002C00011962196A630B10589F788E080932D021A
:1002D00010922E02AFE2B2E0ECE0F2E089E0019091
:1002E0000D928150E1F71092310281E18093380242
:1002F000CBE3D2E0A0E0B0E0FD01EB5EFD4F8081FA
:100300008C83FD01E75EFD4F808189931196A430B7
:10031000B10591F7309343022093440220934502A4
:10032000109247021092490210924A0281E292E032
:10033000B8014F2D0E946405DF91CF911F910F915D
:10034000FF900895109236041092340410923804ED
:100350001092350410922E0410922F0410923A0439
:100360000E94F90080E092E00E94EE0288EC90E0AA
:1003700020E931E0F9013197F1F70197D9F780E0F1
:1003800092E065E172E00E94DF04109207018FEFB6
:100390008093080110BA81BB10920A0180930B016F
:1003A0001AB88BB917B888B90E9495000E94DB0073
:1003B00084E294E06AE040EB54E00E944A018091BC
:1003C0003404813021F40E9495001092340480910D
:1003D0002304813059F40E94DB0084E294E06AE057
:1003E00040EB54E00E944A011092230484EF91E014
:1003F00061E272E00E94F303BC01909332048093A7
:1004000031040097E1F281E292E00E94FF04882328
:1004100039F081E292E0609131040E94CB05CFCFA8
:1004200081E292E0609131040E941A05882339F23A
:1004300080913802813019F680914302883009F0AA
:10044000BECF81E292E0609131040E94AE05B7CF49
:100450002898962F9F71982B9EBD0DB407FEFDCF57
:100460001EBC0DB407FEFDCF67FF04C01EBC0DB45B
:1004700007FEFDCF289A8EB5089528986F71682BD6
:100480006EBD0DB407FEFDCF4EBD0DB407FEFDCF12
:10049000289A0895AC01FB0128988AE38EBD0DB41B
:1004A00007FEFDCF9A01DF0108C01EBC0DB407FE98
:1004B000FDCF215030408EB58D9321153105A9F720
:1004C000E40FF51F1082289A08959C01FB012898DB
:1004D0008AE78EBD0DB407FEFDCF08C080818EBDBA
:1004E0000DB407FEFDCF2150304031962115310566
:1004F000A9F7289A08951F93CF93DF93182FC82F39
:10050000D0E0C076D0708091160490E0C817D9076B
:1005100091F080EA6FE143E00E943D0285E0D595CD
:10052000C7958A95E1F780E86FE14C2F0E943D0264
:10053000107610931604DF91CF911F9108951F93A9
:10054000182F0E947B0280E0612F0E9428021F91D9
:1005500008950F931F93182F062F0E947B0280E4AB
:10056000612F402F0E943D021F910F910895682F27
:1005700084ED0E94A90282ED61E00E94A90288E256
:100580008A95F1F78AEE0E949F0280FDFBCF82EDF3
:1005900060E00E94A90289ED0E949F0290E0089508
:1005A0000F931F93982F162F072F84ED692F0E940A
:1005B000A90286ED612F0E94A90287ED602F0E949B
:1005C000A90210E503C0812F8A95F1F78AEE0E94F7
:1005D0009F0280FDF8CF1F910F9108950F931F93F5
:1005E0008C01209A289A80E58CBD8DB581608DBDE7
:1005F0008FEF60E04FEF0E943D0288EC90E00197A2
:10060000F1F780E090E1909318048093170488E05C
:1006100060E00E94A90289E060E10E94A9028CE0EA
:1006200060E00E94A9028DE060E10E94A9028AE0D8
:100630006FEF0E94A9028BE06FE10E94A90284E0A3
:1006400060E00E94A90285E060E00E94A90286E0C5
:100650006FEF0E94A90287E06FE00E94A90288E381
:1006600060EB0E94A90288E26FE30E94A90289E27E
:1006700060E30E94A90280E369EF0E94A90281E37E
:1006800067EF0E94A90280EC6DE00E94A90281EC54
:1006900060E00E94A90280E862EC42E30E943D0211
:1006A00086EC62E10E94A90287EC6CE00E94A9023C
:1006B00084EC62E10E94A9028AEC64EF0E94A90224
:1006C0008BEC61E00E94A90284EEF80160810E9437
:1006D000A90285EEF80161810E94A90282EEF8016B
:1006E00062810E94A90283EEF80163810E94A9023F
:1006F00080EEF80164810E94A90281EEF801658113
:100700000E94A90280E160E071E00E94D0028FE1C6
:100710000E947B0280E86BE140EC0E943D0280E891
:100720006FE144E00E943D0284E166E774E00E94CC
:10073000D0021F910F91089582E70E949F02863098
:1007400008F08F5F089581E10E94B70220E0892BB5
:1007500009F021E0822F08950F931F93CF93DF9329
:10076000182F092FEB010FC08CE10E949F0281FF1F
:100770000AC080E86FE140E80E943D0280EA6FE134
:1007800040E80E943D0280E06FE10E94280283FD64
:10079000EBCF82E060E00E94A90283E060E00E946B
:1007A000A90286E0612F0E94A90287E0602F0E94C3
:1007B000A9028AE760E040E00E943D02812F902F6D
:1007C000BE010E94650280E86FE148E00E943D02A0
:1007D000DF91CF911F910F91089589E30E949F02AD
:1007E000811181E008958F929F92AF92BF92CF9234
:1007F000DF92EF92FF920F931F93CF93DF935C01F1
:100800004B0189E30E949F02882319F4C0E0D0E0E5
:1008100068C0609117041091180480E00E94A9023A
:1008200081E0612F0E94A9028AE360E00E94280211
:10083000182F8AE360E00E942802382F20E0E12E82
:10084000FF24E22AF32AF0921804E09217048AE3C4
:1008500060E00E942802C82E8AE360E00E9428021D
:10086000D82E8AE360E00E942802082F10E08AE375
:1008700060E00E942802382F20E0202B312B27FD3A
:1008800003C0C0E0D0E011C0CC2DD0E09D2D80E0B1
:10089000C82BD92BC501019724978C179D0708F405
:1008A000EC01CE01B4010E944A02870101501040C0
:1008B00080E20030180738F08CE06FEF0E94A90248
:1008C0008DE06FE107C06E2D61508CE00E94A9029F
:1008D0008DE0612F0E94A90280E86EE140E40E9451
:1008E0003D02CE01DF91CF911F910F91FF90EF90CC
:1008F000DF90CF90BF90AF909F908F900895EF9230
:10090000FF920F931F93CF93DF937C01413061F4EB
:10091000685070409B0140E050E0685F7F4F2F5E61
:100920003F4F4F4F5F4F12C0423029F020E030E080
:1009300040E050E00BC0685070409B0140E050E048
:10094000685F7F4F2A5F3F4F4F4F5F4FE7018B013B
:100950000FC0F881E0E0898190E08E2B9F2BA0E012
:10096000B0E0280F391F4A1F5B1F2296025010402B
:100970000230110570F7FB01EE7FEE0DFF1D60FFE9
:100980000DC0908180E0AA2797FDA095BA2F02C0E4
:1009900040705070280F391F4A1F5B1FCA01AA27D9
:1009A000BB270097A105B10599F720953095C9019E
:1009B000DF91CF911F910F91FF90EF900895AC01BF
:1009C00020E030E0F901E15EFB4FDB01A20FB31F35
:1009D0008C9180832F5F3F4F2430310599F720E0C1
:1009E00030E0F901E75EFB4FDA01A20FB31F8C91F3
:1009F00080832F5F3F4F2630310599F70895FC0122
:100A00006932B0F08485883099F48585863081F428
:100A1000DF019696EFE1F4E09C918081981741F414
:100A20001196319684E0E332F807B1F781E008953A
:100A300080E00895FC016A32B8F084858830A1F422
:100A40008585882389F4DF01EFE1F4E05E969C91CF
:100A50005E978081981741F41196319684E0E332D5
:100A6000F807A1F781E0089580E00895FC01A9E16D
:100A7000B4E0868180838D918683319684E0AF31A6
:100A8000B807B9F70895CF93DF93EC01FC01AFE10C
:100A9000B4E0828D868F8D91828F319684E0A3326F
:100AA000B807B9F7188E198E80E48C8B1D8A8E8B4F
:100AB000CE010E9664E170E040E00E947F04988FC2
:100AC000898FDF91CF910895DF92EF92FF920F937C
:100AD0001F93CF93DF93EC017B01142FD22E032FB2
:100AE0000E9436051D3D08F01CED188A145E198B16
:100AF000CE010E9443058AA18CA38BA18DA30AA3DA
:100B0000DBA21EA214511FA3185018A619A6DE01BD
:100B10009A9620E030E007C0F701E20FF31F8081D2
:100B20008D932F5F3F4F2117B8F3012F10E0005F27
:100B30001F4FCE014A96B80141E00E947F0498A75A
:100B400089A7C8014A96BE010E94AC03DF91CF91EC
:100B50001F910F91FF90EF90DF9008951F93CF9317
:100B6000DF93EC01162F0E943605CE010E9443054B
:100B70001AA28CA1883F18F08DA18F5F8DA38CA144
:100B8000885F8CA3812F90E0BE010E94AC03DF91AF
:100B9000CF911F910895CF93DF93EC010E9436050A
:100BA0001C8A82E08D8BFE01A9E1B4E0868980A3D6
:100BB0008D91868B319684E0AF31B807B9F7FE018D
:100BC0007C96AFE1B4E0808182878D91819384E04F
:100BD000A332B807C1F78AE290E0BE010E94AC03DD
:0A0BE000DF91CF910895F894FFCF44
:100BEA00444F4D303032B827EB355D0B450000825B
:0E0BFA000000400020C0A80164C0A801020055
:00000001FF
